:020000040000FA
:100000000C94AF000C94D9000C94D9000C94D90036
:100010000C94D9000C94D9000C94D9000C94D900FC
:100020000C94D9000C94D9000C94D9000C94D900EC
:100030000C94D9000C94D9000C94D9000C94D900DC
:100040000C9424070C94D9000C94F5070C94CB075E
:100050000C94D9000C94D9000C94D9000C94D900BC
:100060000C94D9000C94D9000C94D9000C94D900AC
:100070000C94D9000C94D9000C9495070C946B0740
:100080000C94D9000C942B080C94D90000003A0071
:1000900037003400310022006100640000003B00A2
:1000A000380035003200230062006500000039008E
:1000B00036003300300021002000630005050505EF
:1000C00005050505020202020202020207070404F6
:1000D00004040404040407070303030303030303E2
:1000E00007010101010101010106060606060606D7
:1000F000060102040810204080010204081020407C
:10010000800810010204081020408001020102044E
:1001100008102040800480402010080402010102E1
:100120000408102040800000000A0B0C00000000B2
:1001300000000104050600000000000000000000AF
:1001400000000000000000000000000000000000AF
:10015000000000000000000000000000441A11240C
:100160001FBECFEFD0E1DEBFCDBF18E0A0E0B1E011
:10017000E2E1FCE500E00BBF02C007900D92AA315E
:10018000B107D9F72AE0AAE1B8E001C01D92AC3866
:10019000B207E1F710E0CFEAD0E004C02197FE01FA
:1001A0000E94E42DCE3AD107C9F70E94C11A0C94DF
:1001B000072E0C940000FB01A485B585ED91FC9100
:1001C00011970190F081E02D682FCD01099590E005
:1001D00080E008959091DD088091DC082FEF3FEFDB
:1001E000981748F4E92FF0E0E454F74F208130E00D
:1001F0009F5F9093DD08C901089581508C3088F588
:10020000E82FF0E0EA5FFE4F0C94E42D2E012E0162
:1002100031011201160119011C01310131012001C6
:1002200026012A018FB58F778FBD08958FB58F7DF9
:10023000FBCF8FB5877FF8CF85B58F7D85BD0895BE
:1002400080918B008F7780938B00089580918B0035
:100250008F7DF9CF80918B00877FF5CF83B78F7D1E
:1002600083BF0895CF93DF93282F30E0F901EA5D33
:10027000FE4F8491F901EF50FF4FD491F901E454FE
:10028000FF4FC491CC23A1F081110E94FD00EC2FFF
:10029000F0E0EE0FFF1FE455FF4FA591B491EC91F4
:1002A000ED2381E090E009F480E0DF91CF910895A3
:1002B00080E090E0FACF1F93CF93DF93282F30E0B8
:1002C000F901EA5DFE4F8491F901EF50FF4FD4919F
:1002D000F901E454FF4FC491CC23A9F0162F8111EA
:1002E0000E94FD00EC2FF0E0EE0FFF1FE456FF4FE1
:1002F000A591B4918FB7F894EC91111108C0D095E5
:10030000DE23DC938FBFDF91CF911F910895DE2B09
:10031000F8CFCF93DF9390E0FC01EF50FF4F249193
:1003200084549F4FFC0184918823C9F090E0880F8A
:10033000991FFC01E457FF4FA591B491FC01E456CD
:10034000FF4FC591D49161110DC09FB7F8948C9166
:10035000209582238C938881282328839FBFDF9157
:10036000CF910895623051F49FB7F8943C91822F59
:10037000809583238C93E8812E2BEFCF8FB7F89451
:10038000EC912E2B2C938FBFEACF1F93CF93DF934B
:10039000182FEB0161E00E948901209739F460E099
:1003A000812FDF91CF911F910C945B01CF3FD1053D
:1003B00011F461E0F5CFE12FF0E0EA5DFE4FE4914A
:1003C000E150EC3008F050C0F0E0E751FE4F0C94E3
:1003D000E42DF501F5013402FD01030209021102C9
:1003E00034023402160220022A0283B7806283BFDD
:1003F000C1BFDF91CF911F9108958FB580688FBDE8
:10040000DBBDCABDF6CF8FB580628FBDD9BDC8BD7B
:10041000F0CF8FB588608FBDD0937900C0937800FE
:10042000E8CF85B5806285BDC3BDE3CF80918B00E9
:10043000806880938B00D0938700C0938600D9CFCB
:1004400080918B00806280938B00D0938500C09355
:100450008400CFCF80918B00886080938B00D093F5
:100460008300C0938200C5CFC038D1050CF0A1CF66
:1004700096CF8D52806487B9369A3699FECF84B173
:1004800095B108958330910588F09C01220F331FA8
:10049000280F391FC90107972031310528F0AEEE2A
:1004A000BBEE0E94ED2D0D970197F1F70895CF92C5
:1004B000DF92EF92FF926FB7F89480918B08909142
:1004C0008C08A0918D08B0918E0850918A0822B7AF
:1004D00036B7432F417030FF04C041E02F3F09F48D
:1004E00040E06FBF6C017D0137E0CC0CDD1CEE1CE1
:1004F000FF1C3A95D1F7C50ED11CE11CF11CC81A9E
:10050000D90AEA0AFB0A880F991FAA1FBB1FC81A3B
:10051000D90AEA0AFB0A63E0CC0CDD1CEE1CFF1CC6
:100520006A95D1F730E0A9ECB5E00E94ED2D672F78
:10053000782F892F99276C0D7D1D8E1D9F1D4423BB
:1005400021F067537A4F8F4F9F4FFF90EF90DF90CE
:10055000CF9008958F929F92AF92BF92CF92DF92E9
:10056000EF92FF924B015C010E9457026B017C01EC
:100570000E9457026C197D098E099F09683E7340DD
:1005800081059105A8F321E0821A9108A108B1081C
:1005900088EEC80E83E0D81EE11CF11C8114910482
:1005A000A104B10429F7FF90EF90DF90CF90BF90A6
:1005B000AF909F908F90089508950895AF92BF9245
:1005C000CF92DF92EF92FF920F931F93CF93DF931F
:1005D0006C017B018B01040F151FEB015E01AE184E
:1005E000BF08C017D10759F06991D601ED91FC9170
:1005F0000190F081E02DC6010995892B79F7C5019D
:10060000DF91CF911F910F91FF90EF90DF90CF90EE
:10061000BF90AF900895FC01538D448D252F30E09D
:10062000842F90E0821B930B541710F0CF960895FF
:1006300001970895FC01918D828D981761F0A28D2C
:10064000AE0FBF2FB11D5D968C91928D9F5F9F73F2
:10065000928F90E008958FEF9FEF0895FC01918DA8
:10066000828D981731F0828DE80FF11D858D90E015
:1006700008958FEF9FEF0895FC01918D228D892FB2
:1006800090E0805C9F4F821B91098F73992708959A
:100690008EE299E00E943C0321E0892B09F420E0DE
:1006A000822F08958BEC99E00E943C0321E0892B76
:1006B00009F420E0822F0895FC01A48DA80FB92F22
:1006C000B11DA35ABF4F2C91848D90E001968F737A
:1006D0009927848FA689B7892C93A089B1898C9199
:1006E000837080648C93938D848D981306C00288E8
:1006F000F389E02D80818F7D80830895EF92FF92B2
:100700000F931F93CF93DF93EC0181E0888F9B8D34
:100710008C8D98131AC0E889F989808185FF15C0EE
:100720009FB7F894EE89FF896083E889F989808111
:100730008370806480839FBF81E090E0DF91CF91E0
:100740001F910F91FF90EF900895F62E0B8D10E002
:100750000F5F1F4F0F731127E02E8C8D8E110CC071
:100760000FB607FCFACFE889F989808185FFF5CFBC
:10077000CE010E945C03F1CFEB8DEC0FFD2FF11D3C
:10078000E35AFF4FF0829FB7F8940B8FEA89FB89F9
:1007900080818062CFCFCF93DF93EC01888D882357
:1007A000B9F0AA89BB89E889F9898C9185FD03C0D4
:1007B000808186FD0DC00FB607FCF7CF8C9185FFB9
:1007C000F2CF808185FFEDCFCE010E945C03E9CF9F
:1007D000DF91CF91089580E090E0892B29F00E946D
:1007E000520381110E94000080E090E0892B29F0E3
:1007F0000E94480381110C940000089585ED8093B8
:1008000074008091740084FDFCCF109297080895C5
:1008100020914208260F3327331F21323105ECF493
:1008200020919708FC0190E080E0243069F082E09C
:100830000895A09142082191AC014E5D574FA40F3D
:10084000B52FB11D2C930196861798F3809142081D
:10085000680F6093420880E0089581E0089508954C
:10086000E091DD088091DC08E81730F4F0E0E45412
:10087000F74F808190E008958FEF9FEF089580916A
:10088000DC089091DD08891B990B0895CF92DF92C7
:10089000EF92FF920F931F93CF93DF937C01CB01D5
:1008A0008A0120919808222389F0EB016B01C40E84
:1008B000D51ECC15DD0569F06991D701ED91FC914C
:1008C0000190F081E02DC7010995F3CF642F0E94BC
:1008D0000804C801DF91CF911F910F91FF90EF9015
:1008E000DF90CF900895CF93DF931F92CDB7DEB7FF
:1008F0006983209198082223F9F02091BB082032C7
:1009000058F021E030E0FC013383228390E080E066
:100910000F90DF91CF91089580919908E82FF0E032
:10092000E656F74F998190838F5F80939908809363
:10093000BB0881E090E0ECCF61E0CE0101960E941F
:100940000804F7CFCF93DF93EC0160E08E810E9423
:100950005B0181E090E00E94420261E08E810E9492
:100960005B0181E090E00E94420260E08E810E9483
:100970005B0184E690E0DF91CF910C944202CF922C
:10098000DF92EF92FF920F931F93CF93DF936C014F
:100990007C0187E0E80EF11CD0E0C0E0062F10E0FB
:1009A000B8010C2E02C0759567950A94E2F7617044
:1009B000F70181917F010E945B012196C430D1052E
:1009C00079F7C601DF91CF911F910F91FF90EF90C2
:1009D000DF90CF900C94A204CF92DF92EF92FF921F
:1009E0000F931F93CF93DF93EC01F62E642F8C812E
:1009F0000E945B018D818F3F19F060E00E945B01D6
:100A00000F2D10E08F8584FF25C06E0187E0C80E92
:100A1000D11CF12CE12CB8010E2C02C07595679504
:100A20000A94E2F76170F60181916F010E945B0107
:100A3000FFEFEF1AFF0A88E0E816F10461F7CE0134
:100A4000DF91CF911F910F91FF90EF90DF90CF90AA
:100A50000C94A204B80184E0759567958A95E1F736
:100A6000CE010E94BF046F2DCE01DF91CF911F9167
:100A70000F91FF90EF90DF90CF900C94BF0440E077
:100A8000682F84E79AE00C94EC0481E00E943F0513
:100A900080ED97E00C944202CF93DF93613029F010
:100AA0009091830A98609093830A6093870A1092CA
:100AB000880A90E49093890A80938A0A805C8093E4
:100AC0008B0A61E08091780A0E9489018091790AFD
:100AD0008F3F19F061E00E94890161E080917A0AFC
:100AE0000E948901C4E7DAE09E0124573A408091D0
:100AF000830A84FD0BC084E090E021962817390713
:100B000044F461E08E810E948901EECF88E090E09C
:100B1000F4CF80E593EC0E94420260E08091780A75
:100B20000E945B0160E080917A0A0E945B018091E3
:100B3000790A8F3F19F060E00E945B018091830A7F
:100B400084FD35C063E084E79AE00E94BF0484E935
:100B500091E10E94420263E084E79AE00E94BF04B0
:100B600084E991E10E94420263E084E79AE00E94F6
:100B7000BF0486E990E00E94420262E084E79AE0C6
:100B80000E94BF048091830A80620E943F0584E036
:100B90008093840A8CE00E943F050E94450582E014
:100BA0008093850A86E0DF91CF910C943F058062A7
:100BB0000E943F0584E991E10E9442028091830AEC
:100BC00080620E943F0586E990E00E944202809187
:100BD000830A80620E943F05D5CF643008F063E04D
:100BE0009091870A691710F06FEF690FE62FF0E018
:100BF000EC58F54F9489890F80680C943F0541E0CB
:100C00000E94EC0481E090E00895089590E080E077
:100C100008951F93CF93DF93D82FC62F142F682FDB
:100C200061708CE20E945B01D1FB662760F98BE268
:100C30000E945B016D2F659565958AE20E945B01BC
:100C400011110FC08DE2CC2339F08EE2C13021F0BA
:100C50008FE2C23009F080E3DF91CF911F910C94B5
:100C600032018DE2CC2339F08EE2C13021F08FE2E7
:100C7000C23009F080E30E94390225E0289FB001CC
:100C8000299F700D1124072E000C880B990B0E94D0
:100C90005E2C2AE939E94CEC52E40E94B42B0E9404
:100CA000262CCB01DF91CF911F9108950F931F93B5
:100CB000CF93DF9300271127061B170B81302FEFEF
:100CC00092070CF446C08F3F910509F0CCF5CC2774
:100CD000DD27C81BD90B61302FEF72072CF16F3F56
:100CE000710509F024F597FD29C060E082E00E94BB
:100CF0005B01662777276C1B7D0B83E00E94C50193
:100D0000CC27DD27C01BD10B60E0101611060CF4B8
:100D100061E084E00E945B01BE0185E0DF91CF913C
:100D20001F910F910C94C5010FEF10E0DCCF01E093
:100D30001FEFD9CF0FEF10E0CFEFD0E061E0D6CFBB
:100D400061308FEF780784F40FEF10E0C1E0DFEF40
:100D5000CCCF61302FEF72076CF36F3F710561F3F9
:100D60005CF301E01FEFE8CF6F3F710579F374F397
:100D700001E01FEFEBCF0F931F93CF93DF938C0115
:100D8000D0E0C0E061E083E20E945B0162E370E0DA
:100D900080E090E00E94AA0260E083E20E945B0192
:100DA00062E370E080E090E00E94AA0221960C17B6
:100DB0001D0741F7DF91CF911F910F910895CF93B8
:100DC000DF93CDB7DEB72E970FB6F894DEBF0FBE18
:100DD000CDBF8BED90E09A8789871C861B8682E0C9
:100DE0008C8384E79AE09E878D87AE01495E5F4FD2
:100DF0006D897E89CE0101960E94F3282E960FB64A
:100E0000F894DEBF0FBECDBFDF91CF910895FC01F6
:100E100001900020E9F73197AF01481B590BBC0145
:100E200084E79AE00C94DE021F93CF93DF93EC01EA
:100E3000162F672F0E94A22B612FCE010196DF9102
:100E4000CF911F910C94A22B1F920F920FB60F926D
:100E500011244F935F936F937F938F939F93409150
:100E60008B0850918C0860918D0870918E0880914C
:100E70008A08909189089A3119F510928908909101
:100E80008908953008F1845C8D3700F18D574E5FED
:100E90005F4F6F4F7F4F80938A0840938B0850932A
:100EA0008C0860938D0870938E089F918F917F912D
:100EB0006F915F914F910F900FBE0F901F901895FB
:100EC0009F5F90938908DBCF835CDECF4F5F5F4FDE
:100ED0006F4F7F4FE0CF1F920F920FB60F921124EA
:100EE0000BB60F922F933F934F935F936F937F9324
:100EF0008F939F93AF93BF93EF93FF938EE299E00D
:100F00000E945C03FF91EF91BF91AF919F918F91F0
:100F10007F916F915F914F913F912F910F900BBEF9
:100F20000F900FBE0F901F9018951F920F920FB643
:100F30000F9211240BB60F922F938F939F93EF93E1
:100F4000FF93E0913E09F0913F098081E0914409CF
:100F5000F091450982FD1DC09081809147098F5F06
:100F60008F7320914809821741F0E0914709F0E022
:100F7000E25DF64F958F80934709FF91EF919F9126
:100F80008F912F910F900BBE0F900FBE0F901F905F
:100F900018958081F2CF1F920F920FB60F921124F5
:100FA0000BB60F922F933F934F935F936F937F9363
:100FB0008F939F93AF93BF93EF93FF938BEC99E045
:100FC0000E945C03FF91EF91BF91AF919F918F9130
:100FD0007F916F915F914F913F912F910F900BBE39
:100FE0000F900FBE0F901F9018951F920F920FB683
:100FF0000F9211240BB60F922F938F939F93EF9321
:10100000FF93E091DB09F091DC098081E091E10937
:10101000F091E20982FD1DC090818091E4098F5F0B
:101020008F732091E509821741F0E091E409F0E027
:10103000E553F64F958F8093E409FF91EF919F91CF
:101040008F912F910F900BBE0F900FBE0F901F909E
:1010500018958081F2CF1F920F920FB60F92112434
:101060000BB60F922F933F934F935F936F937F93A2
:101070008F939F93AF93BF93EF93FF9380917100F2
:10108000887F803609F44DC008F040C0883209F4EA
:10109000A9C028F5803109F49DC0C8F4882309F45B
:1010A00007C1883009F496C0FF91EF91BF91AF91CD
:1010B0009F918F917F916F915F914F913F912F9170
:1010C0000F900BBE0F900FBE0F901F901895883198
:1010D00009F488C0803241F78093950814C08034A9
:1010E00009F4A5C040F48033B9F38833E9F680935E
:1010F000950885ECBCC0803509F489C0883509F4B1
:101100009EC0883489F60E94FE03CECF883909F448
:1011100094C038F5883729F050F4883611F08037BC
:1011200019F683E0809397081092640857C08838B6
:1011300009F483C0803919F0803809F0B5CF809167
:101140006408803208F079C0E091640881E08E0F75
:101150008093640880917300F0E0EC5BF74F80832C
:101160003DC0803B39F0E0F4803A09F485C0883A0C
:1011700009F09ACF84E08093970810924308109268
:101180004208E0916708F09168080995809142084B
:1011900081110FC081E0809342081092220809C09B
:1011A000803C09F4A6CF883C09F4A3CF883B09F022
:1011B0007BCFE091430881E08E0F80934308F0E0FD
:1011C000EE5DF74F8081809373009091430880918A
:1011D000420831C0809190088093730085EC809321
:1011E000740062CF90919208809191089817B8F599
:1011F0008091930890919408E091920821E02E0F3D
:1012000020939208E80FF92FF11D8081E5CF2091FE
:10121000930830919408E091920881E08E0F8093BA
:10122000920880917300E20FF32FF11D808390915B
:10123000920880919108981788F285E8D0CF209184
:10124000930830919408E091920881E08E0F80938A
:10125000920880917300E20FF32FF11D808380913B
:101260009608811150CF81E080938F0884EA8093A3
:1012700074001092970818CF85EC80937400109238
:10128000970880916408803230F4E0916408F0E0BF
:10129000EC5BF74F10826091640870E0E0916508A4
:1012A000F091660884E498E0099510926408FCCEF9
:1012B0001092950828CFCF92DF92EF92FF920F9372
:1012C0001F93E82FF92F05C0015011092109310999
:1012D00061F1908196239417B9F305C0015011096B
:1012E0002109310911F1908196239413F7CFC12C74
:1012F000D12CE12CF12C0AC08FEFC81AD80AE80AC9
:10130000F80A0C151D052E053F0579F0808186230E
:10131000841791F36C2D7D2D8E2D9F2D1F910F9194
:10132000FF90EF90DF90CF90089560E070E080E054
:1013300090E01F910F91FF90EF90DF90CF90089574
:10134000CF93DF93CDB7DEB7D2500FB6F894DEBFA0
:101350000FBECDBF80E092E0E6E0F1E0DE01119645
:1013600001900D920197E1F7A2EFB8E02EE039E08D
:1013700090E080E06D917D91582F4427E92FFF2761
:10138000E627EE0FFF1F81E090E08C0F9D1FE80F16
:10139000F91F80819181842795272A173B0751F7F0
:1013A000DE5F0FB6F894DEBF0FBECDBFDF91CF91E9
:1013B00008959091DD088091DC082FEF3FEF98179A
:1013C00048F4E92FF0E0E454F74F208130E09F5FCC
:1013D0009093DD08C9010895282F9091BB0881E002
:1013E000913208F042C0809197088111FCCF809122
:1013F000BA0832E030939708209396082FEF209395
:1014000095082AE938E030939408209393081092C5
:101410009208909391081092900890919008880FEC
:10142000892B8093900880918F08813029F5109244
:101430008F0880919008809373008091740083FDE1
:10144000F8CF85EC80937400809197088230E1F3A7
:10145000809195088F3F91F080919508803281F0BE
:1014600080919508803371F084E010929908109271
:10147000BB0810929808089585EEE4CF80E0F5CF80
:1014800082E0F3CF83E0F1CF91E0909398088093CE
:10149000BA08109299081092BB08089581E00C9444
:1014A000EC092FEF30E03093F3082093F2083093EB
:1014B000F5082093F4082DEF30E03093F7082093DF
:1014C000F6081092F9081092F808082E000C990BF3
:1014D0009093FB088093FA0889E090E09093FD08D0
:1014E0008093FC081092FF081092FE0883E090E0C1
:1014F00090930109809300098EE190E09093030995
:10150000809302091092050910920409CB019927D2
:1015100090930709809306097093080910920909AE
:1015200084E690E090930B0980930A0910920D09CC
:1015300010920C090E94A0099C01332730930F09D7
:1015400020930E09909310091092110961E086E131
:101550000E945B01E2EFF8E080919B0085FFFCCFE9
:101560008081329680939C0089E0E231F807A1F7F0
:1015700080919B0086FFFCCF6FE070E080E090E000
:101580000C94AA029FEF9093DE089093DF0880935B
:10159000E00887E08093E10883E08093E2088EE131
:1015A0008093E3086093E4087093E50886E98093EC
:1015B000E6081092E70861E086E10E945B01E0EE38
:1015C000F8E080E092E02191820F9F5F9A30D9F796
:1015D00080958093E808EEEDF8E080E090919B0024
:1015E00095FFFCCF919190939C008F5F8B30B1F76A
:1015F00080919B0086FFFCCF6AE070E080E090E085
:101600000C94AA02682F88E69AE00C947304AC014B
:10161000809197088111FCCF962F81E080939708E5
:10162000809396082FEF209395082CEB38E03093A9
:10163000940820939308109292082FEF260F20937E
:1016400091088093900820919008440F551F822F95
:10165000842B8093900880918F088130E9F4109258
:101660008F0880919008809373008091740083FDAF
:10167000F8CF85EC80937400809197088130E1F376
:1016800080919208861710F4909192081092DD08CC
:101690009093DC08892F089585EEECCFCF93DF93EC
:1016A000C82F60E0813009F43FC061E08230E1F58D
:1016B00060E08CE20E945B0160E08BE20E945B01D3
:1016C00061E08AE20E945B0189E20E94440A90E0A4
:1016D00080E00E94020B81E090E00E94020B0E94D9
:1016E0004E0A6AE070E080E090E00E94AA0289E27F
:1016F0000E94440A8EE190E00E94020B80E00E946A
:10170000EC0962E070E089E290E00E94070B8091B2
:10171000DC089091DD08891B990B029774F481E035
:1017200090E0DF91CF9108958CE20E945B0161E02F
:101730008BE20E945B0160E0C4CF0E94D909D82FE0
:101740000E94D90920E03D2FA901482BCA0184310C
:10175000910539F76AE070E080E090E00E94AA020B
:1017600060E0C13009F447C061E0C23009F043C015
:1017700060E08CE20E945B0160E08BE20E945B0112
:1017800061E08AE20E945B0189E20E94440A90E0E3
:1017900080E00E94020B81E090E00E94020B0E9418
:1017A0004E0A6AE070E080E090E00E94AA0289E2BE
:1017B0000E94440A8EE190E00E94020B80E00E94A9
:1017C000EC0962E070E089E290E00E94070B8091F2
:1017D000DC089091DD08891B990B02970CF49FCFD0
:1017E0000E94D909C82F0E94D90920E03C2FA901E5
:1017F000482BCA0196CF8CE20E945B0161E08BE22C
:101800000E945B0160E0BDCFBF92CF92DF92EF926A
:10181000FF920F931F93CF93DF938C0161E08CE2D3
:101820000E945B0161E08BE20E945B0160E08AE262
:101830000E945B0180E60E94440A82E090E00E94E0
:10184000020B0E944E0A64E070E080E690E00E9485
:10185000070B8091DC089091DD08891B990B049798
:1018600094F10E94D909D82F20E0C22F0E94D909F3
:101870008C2B9D2B6AE070E00E948F2D8091810857
:1018800090918208EB01C81BD90B0E94D90924EB67
:10189000D22E9C01D29EC001D39E900D1124EE2425
:1018A000EA94F12CB7010E948F2DB62EC72E0E940C
:1018B000D9099C01D29EC001D39E900D1124B7017D
:1018C0000E948F2D7B01D7FF02C0C859DE4F013027
:1018D000110529F00230110569F0CE2DDF2DCE0162
:1018E000DF91CF911F910F91FF90EF90DF90CF90FC
:1018F000BF900895CB2DDC2DF2CF0F931F93CF9384
:101900008C010E949A2BC82FC80101960E949A2B25
:101910002C2F30E0322F2227820F932F911DCF9151
:101920001F910F9108950E94450584EA90E00E945E
:101930007D0C5C0186EA90E00E947D0C6C0188EAD7
:1019400090E00E947D0C4C018AEA90E00E947D0CA0
:101950003C018CEA90E00E947D0C2C018EEA90E024
:101960000E947D0C7C0180EB90E00E947D0C8C013C
:10197000D0E0C0E084E7282E8AE0382E88E00E947C
:101980003201892BA9F488E00E943201892BD9F316
:1019900062E370E080E090E00E94AA028091000182
:1019A0008F5F89300CF059C0809300010E9445057B
:1019B00089E00E943201892BA9F489E00E9432015A
:1019C000892BD9F362E370E080E090E00E94AA02E4
:1019D00080910001815018160CF041C080930001E5
:1019E0000E94450580910001813009F044C060E00B
:1019F00080E00E94ED05DF93CF93DF93CF9386E3E2
:101A000093E09F938F933F922F920E94DF068AE08C
:101A10000E9432012DB73EB7285F3F4F0FB6F894B2
:101A20003EBF0FBE2DBF892BE1F4E29660E971E065
:101A300080E090E00E94AA02C1303FEFD30714F487
:101A4000C1E0DFEFCF3FD10519F014F0CFEFD0E0C8
:101A5000BE01CE010E94560691CF81E0A5CF88E05D
:101A6000BDCF8BE00E943201892B11F4E297DECFCB
:101A7000D0E0C0E0EDCF823009F053C060E080E0FC
:101A80000E94ED05BF92AF921F928AE08F9383E48C
:101A900093E09F938F933F922F920E94DF0686E000
:101AA0000E9432012DB73EB7285F3F4F0FB6F89422
:101AB0003EBF0FBE2DBF892B51F4B50184EA90E0E3
:101AC0000E941407B5018AE00E94C20A57CF8AE03B
:101AD0000E943201892B81F462E370E080E090E0A3
:101AE0000E94AA0238E0A31632E0B3060CF046CFFB
:101AF00085E0A80EB11C42CF8BE00E943201892BF9
:101B000009F03CCF62E370E080E090E00E94AA021E
:101B10009BEFA916B1040CF431CF25E0A21AB1084D
:101B20002DCF833009F050C060E080E00E94ED05C9
:101B3000DF92CF921F928AE08F9384E593E09F9388
:101B40008F933F922F920E94DF0686E00E9432011F
:101B50002DB73EB7285F3F4F0FB6F8943EBF0FBE7C
:101B60002DBF892B39F4B60186EA90E00E94140754
:101B7000B601A9CF8AE00E943201892B81F462E389
:101B800070E080E090E00E94AA0238E0C31632E0E4
:101B9000D3060CF0F3CE85E0C80ED11CEFCE8BE05F
:101BA0000E943201892B09F0E9CE62E370E080E007
:101BB00090E00E94AA029BEFC916D1040CF4DECE7D
:101BC00025E0C21AD108DACE843009F053C060E0B3
:101BD00080E00E94ED059F928F921F928AE08F9382
:101BE00089E693E09F938F933F922F920E94DF06A6
:101BF00086E00E9432012DB73EB7285F3F4F0FB6F7
:101C0000F8943EBF0FBE2DBF892B51F4B4018BE079
:101C10000E94C20AB40188EA90E00E941407AECE86
:101C20008AE00E943201892B81F462E370E080E057
:101C300090E00E94AA0230E2831633E093060CF093
:101C40009DCE85E0880E911C99CE8BE00E943201DA
:101C5000892B09F093CE62E370E080E090E00E946F
:101C6000AA0297E9891691040CF488CE25E0821A1D
:101C7000910884CE853009F051C060E080E00E9478
:101C8000ED057F926F921F928AE08F938BE793E02E
:101C90009F938F933F922F920E94DF0686E00E94CF
:101CA00032012DB73EB7285F3F4F0FB6F8943EBFC5
:101CB0000FBE2DBF892B41F4B3018AEA90E00E9448
:101CC0001407B3018BE000CF8AE00E943201892B18
:101CD00081F462E370E080E090E00E94AA0230E2CA
:101CE000631633E073060CF049CE85E0680E711C74
:101CF00045CE8BE00E943201892B09F03FCE62E392
:101D000070E080E090E00E94AA0297E969167104F1
:101D10000CF434CE25E0621A710830CE863009F01A
:101D200051C060E080E00E94ED055F924F921F92EB
:101D30008AE08F938BE893E09F938F933F922F924B
:101D40000E94DF0686E00E9432012DB73EB7285F71
:101D50003F4F0FB6F8943EBF0FBE2DBF892B39F40D
:101D6000B2018CEA90E00E941407B201ABCF8AE086
:101D70000E943201892B81F462E370E080E090E000
:101D80000E94AA0238EE431633E053060CF0F6CD5B
:101D900085E0480E511CF2CD8BE00E943201892B68
:101DA00009F0ECCD62E370E080E090E00E94AA02CE
:101DB0009DE2491691E059060CF4E0CD25E0421A67
:101DC0005108DCCD873009F061C060E080E00E94FE
:101DD000ED05FF92EF921F928AE08F938FE993E0D7
:101DE0009F938F933F922F920E94DF0686E00E947E
:101DF00032012DB73EB7285F3F4F0FB6F8943EBF74
:101E00000FBE2DBF892BB9F4B7018EEA90E00E9476
:101E10001407B7018EE10E94510A62E370E080E08E
:101E200090E00E94AA0265E474E06E197F098FE1D8
:101E30000E94510AA3CD8AE00E943201892B81F4CD
:101E400062E370E080E090E00E94AA023AE7E316C5
:101E500033E0F3060CF092CD85E0E80EF11C8ECD58
:101E60008BE00E943201892B09F088CD62E370E09B
:101E700080E090E00E94AA029BE3E91692E0F90656
:101E80000CF47CCD25E0E21AF10878CD883009F019
:101E900075CD60E080E00E94ED051F930F931F92C7
:101EA0008AE08F9384EB93E09F938F933F922F92DE
:101EB0000E94DF0686E00E9432012DB73EB7285F00
:101EC0003F4F0FB6F8943EBF0FBE2DBF892BA1F434
:101ED000B80180EB90E00E941407B8018EE10E94E7
:101EE000510A62E370E080E090E00E94AA0265E49B
:101EF00074E0601B710B9BCF8AE00E943201892B3A
:101F000071F462E370E080E090E00E94AA020A3778
:101F100033E013070CF032CD0B5F1F4F2FCD8BE05A
:101F20000E943201892B09F029CD62E370E080E044
:101F300090E00E94AA020B3382E018070CF41ECD39
:101F4000055011091BCDAF92BF92CF92DF92EF9255
:101F5000FF920F931F93CF93DF93D82E81E0D81277
:101F6000F5C060E08AE20E945B0160E08BE20E94C3
:101F70005B0160E08CE20E945B018AE090E00E94DD
:101F8000420289E30E94440A60E888E69AE00E94DF
:101F9000730463E088E69AE00E9473040E944E0A8C
:101FA00089E30E94440A6FE888E69AE00E9473047D
:101FB00061E088E69AE00E9473040E944E0A89E379
:101FC0000E94440A64E988E69AE00E9473040E9431
:101FD0004E0A68E070E089E390E00E94070B809170
:101FE000DC089091DD08891B990B0897D4F10E94B9
:101FF000D909EC010E94D9091FEFDD27819FC00D8F
:10200000D11D1124D0936A08C09369080E94D90990
:10201000EC010E94D909DD27819FC00DD11D11243B
:10202000D0937008C0936F080E94D909EC010E94F8
:10203000D909DD27819FC00DD11D1124D0936E08D1
:10204000C0936D080E94D909EC010E94D909DD27CF
:10205000819FC00DD11D11242A97D0936C08C09385
:102060006B08E0906F08F090700800916D08109177
:102070006E0881E0D812B1C1C0906B08D0906C0896
:102080008AE990E00E947D0CEC010E151F050CF012
:1020900075C0CE14DF040CF0BAC084E190E00E9459
:1020A0007D0C9C012C0F3D1FE216F3060CF0B3C013
:1020B0008C1B9D0B8E159F050CF0ADC086E190E04A
:1020C0000E947D0C9C012C0F3D1F021713070CF082
:1020D000A2C08C1B9D0B801791070CF09CC088E15F
:1020E00090E00E947D0C9C012C0F3D1FC216D30670
:1020F0000CF091C08C1B9D0B8C159D050CF08BC0BA
:102100008AE190E00E947D0C2091690830916A0874
:10211000AC014C0F5D1F241735070CF07CC08C1BE5
:102120009D0B821793070CF076C010922108109235
:10213000200880912008DF91CF911F910F91FF908F
:10214000EF90DF90CF90BF90AF90089582E0D812CB
:102150000AC060E08AE20E945B0160E08BE20E94BC
:102160005B0161E007CF61E08CE20E945B0161E00E
:102170008BE20E945B0160E08AE2FDCEE016F10690
:102180000CF045C0C016D1060CF041C08CE190E0C7
:102190000E947D0C9C012C0F3D1FE216F306BCF53E
:1021A0008C1B9D0B8E159F0594F58EE190E00E948F
:1021B0007D0C9C012C0F3D1F0217130744F58C1B4F
:1021C0009D0B801791071CF580E290E00E947D0C2A
:1021D0009E01280F391FC216D306CCF48C1B9D0B11
:1021E0008C159D05A4F482E290E00E947D0C209164
:1021F000690830916A08AE01480F591F2417350746
:1022000034F48C1B9D0B821793070CF41DC2EC1445
:10221000FD040CF44FC08CE290E00E947D0C9E0106
:10222000280F391FE216F3060CF497C084E390E000
:102230000E947D0C9E01280F391F2E153F05BCF111
:102240008C1B9D0BE816F90694F186E390E00E9442
:102250007D0C9C012C1B3D0B0217130744F18C0FC6
:102260009D1F801791071CF188E390E00E947D0C70
:102270009C012C1B3D0BC216D306CCF08C0F9D1F6E
:102280008C159D05A4F08AE390E00E947D0C2091BE
:10229000690830916A08AE01480F591F4217530769
:1022A00034F08C1B9D0B281739070CF00EC287E009
:1022B00090E04EC00C151D050CF0ADCF84E290E00F
:1022C0000E947D0C9E01280F391FE216F3060CF0C8
:1022D000A2CF8C1B9D0B8E159F050CF09CCF86E228
:1022E00090E00E947D0C9E01280F391F02171307F2
:1022F0000CF091CF8C1B9D0B801791070CF08BCFAE
:1023000088E290E00E947D0C9E01280F391FC216C2
:10231000D3060CF080CF8C1B9D0B8C159D050CF00B
:102320007ACF8AE290E00E947D0C2091690830917A
:102330006A08AE01480F591F241735070CF06BCF00
:102340008C1B9D0B821793070CF065CF82E090E009
:102350009093210880932008ECCE8C1B9D0B8E154A
:102360009F050CF063CF8EE290E00E947D0C9E01F1
:10237000280F391F021713070CF058CF8C1B9D0B29
:10238000801791070CF052CF80E390E00E947D0C03
:102390009E01280F391FC216D3060CF047CF8C1BA5
:1023A0009D0B8C159D050CF041CF82E390E00E94BF
:1023B0007D0C2091690830916A08AE01480F591FC1
:1023C000241735070CF032CF8C1B9D0B8217930717
:1023D0000CF02CCF84E090E0BBCF82E0D81278C123
:1023E000C0906B08D0906C088AE990E00E947D0C48
:1023F000EC010E151F050CF086C0CE14DF040CF0A6
:1024000086C08CE390E00E947D0C9E01280F391F4E
:10241000E216F306BCF58C1B9D0B8E159F0594F5FB
:102420008EE390E00E947D0C9E01280F391F021759
:10243000130744F58C1B9D0B801791071CF580E456
:1024400090E00E947D0C9E01280F391FC216D30612
:10245000CCF48C1B9D0B8C159D05A4F482E490E0BC
:102460000E947D0C2091690830916A08AE01480FE6
:10247000591F2417350734F48C1B9D0B82179307C3
:102480000CF453CE84E590E00E947D0C9E01280F51
:10249000391FE216F3060CF4DAC08CE590E00E94D6
:1024A0007D0C9E01280F391F2E153F050CF4FFCE21
:1024B0008C1B9D0BE816F9060CF4F9CE8EE590E026
:1024C0000E947D0C9C012C1B3D0B021713070CF482
:1024D000EECE8C0F9D1F801791070CF4E8CE80E69E
:1024E00090E00E947D0C9C012C1B3D0BC216D30674
:1024F0000CF4DDCE8C0F9D1F8C159D050CF4D7CEF2
:1025000082E690E0C2CEE016F1060CF451C0EC1465
:10251000FD040CF0B7CF0C151D050CF0B3CF8CE407
:1025200090E00E947D0C9E01280F391FE216F306F1
:102530000CF0A8CF8C1B9D0B8E159F050CF0A2CF25
:102540008EE490E00E947D0C9E01280F391F021737
:1025500013070CF097CF8C1B9D0B801791070CF085
:1025600091CF80E590E00E947D0C9E01280F391FDD
:10257000C216D3060CF086CF8C1B9D0B8C159D05C7
:102580000CF080CF82E590E00E947D0C20916908DC
:1025900030916A08AE01480F591F241735070CF017
:1025A00071CF8C1B9D0B821793070CF4CFCE6ACF93
:1025B000C016D1060CF0ABCF84E490E00E947D0CF5
:1025C0009E01280F391FE216F3060CF0A0CF8C1BDA
:1025D0009D0B8E159F050CF09ACF86E490E00E942B
:1025E0007D0C9E01280F391F021713070CF08FCFA7
:1025F0008C1B9D0B801791070CF089CF88E490E02D
:102600000E947D0C9E01280F391FC216D3060CF0C4
:102610007ECF8C1B9D0B8C159D050CF078CF8AE42A
:1026200090E00E947D0C2091690830916A08AE010B
:10263000480F591F241735070CF069CF8C1B9D0BD1
:10264000821793070CF063CF81E090E081CE8C1B62
:102650009D0B8E159F050CF020CF86E590E00E9423
:102660007D0C9E01280F391F021713070CF015CFA0
:102670008C1B9D0B801791070CF00FCF88E590E025
:102680000E947D0C9E01280F391FC216D3060CF044
:1026900004CF8C1B9D0B8C159D050CF0FECE8AE59E
:1026A00090E00E947D0C2091690830916A08AE018B
:1026B000480F591F241735070CF0EFCE8C1B9D0BCC
:1026C000821793070CF486CEE8CE85E090E040CEEA
:1026D0000E151F050CF057C0C0906B08D0906C0809
:1026E000CE14DF040CF0E3CD84E690E00E947D0C74
:1026F0005C018AE990E00E947D0CEC01C5018C0F21
:102700009D1FE816F9060CF0D2CDAC1ABD0AAE1426
:10271000BF040CF0CCCD86E690E00E947D0C9E01BB
:10272000280F391F021713070CF0C1CD8C1B9D0B0E
:10273000801791070CF0BBCD88E690E00E947D0CDD
:102740009E01280F391FC216D3060CF0B0CD8C1B8A
:102750009D0B8C159D050CF0AACD8AE690E00E9499
:102760007D0C2091690830916A08AE01480F591F0D
:10277000241735070CF09BCD8C1B9D0B82179307FC
:102780000CF4D3CC94CDE016F1060CF090CDC090B3
:102790006B08D0906C08C016D1060CF088CD8CE682
:1027A00090E00E947D0C5C018AE990E00E947D0C23
:1027B000EC01C5018C0F9D1FE816F9060CF077CDD2
:1027C000AC1ABD0AAE14BF040CF071CD8EE690E0D9
:1027D0000E947D0C9E01280F391F021713070CF071
:1027E00066CD8C1B9D0B801791070CF060CD80E7A8
:1027F00090E00E947D0C9E01280F391FC216D3065F
:102800000CF055CD8C1B9D0B8C159D050CF04FCD00
:1028100082E790E00E947D0C2091690830916A085F
:10282000AE01480F591F241735070CF040CD8C1B03
:102830009D0B821793070CF407CF39CD0E944505F5
:1028400089EE882E83E0982EC4E7DAE09DE6E92E33
:1028500094E0F92E2FEAC22E24E0D22E3DEBA32ED7
:1028600034E0B32E01E014E088E00E943201892BAD
:1028700079F488E00E943201892BD9F3809101011B
:102880008F5F89300CF0A8C0809301010E9445053C
:1028900089E00E943201892B71F489E00E943201A3
:1028A000892BD9F380910101815009F499C080935B
:1028B00001010E9445058AE00E943201892B09F03E
:1028C00091C068E270E088E290E00E945606809134
:1028D0000101813009F0A8C160E080E00E94ED05AF
:1028E00088EC93E00E94070761E080E00E94ED051C
:1028F00084ED93E00E94070762E080E00E94ED050E
:1029000080916A088F93809169088F9380916C08F9
:102910008F9380916B088F9380916E088F93809135
:102920006D088F93809170088F9380916F088F93BB
:102930009F928F92DF93CF930E94DF0664E670E050
:1029400080E090E00E94AA0281E00E94A30F2DB7D0
:102950003EB7245F3F4F0FB6F8943EBF0FBE2DBF6A
:1029600081114FC060E08CE00E94ED058AEF93E09A
:102970000E94070763E080E00E94ED058AE190E095
:102980000E947D0C382E292E88E190E00E947D0C5B
:10299000582E492E86E190E00E947D0C782E692EFB
:1029A00084E190E00E947D0C2F923F924F925F92C3
:1029B0006F927F929F938F931F930F93DF93CF9389
:1029C0000E94DF062DB73EB7245F3F4F0FB6F89445
:1029D0003EBF0FBE2DBF48CF21E02093010156CF4F
:1029E00088E065CF8BE00E943201892B29F468EDE5
:1029F0007FEF88ED9FEF69CF70E060E090E080E0CE
:102A000064CF81E00E94A30F8130D1F560E08CE0BB
:102A10000E94ED0582E194E00E94070763E080E0F8
:102A20000E94ED0582E290E00E947D0C382E292E56
:102A300080E290E00E947D0C582E492E8EE190E0BD
:102A40000E947D0C782E692E8CE190E00E947D0C16
:102A50002F923F924F925F926F927F929F938F93AC
:102A60001F930F93DF93CF930E94DF062DB73EB7DE
:102A7000245F3F4F0FB6F8943EBF0FBE2DBFF4CE7C
:102A800081E00E94A30F8230D1F560E08CE00E94CB
:102A9000ED0589E194E00E94070763E080E00E9471
:102AA000ED058AE290E00E947D0C382E292E88E206
:102AB00090E00E947D0C582E492E86E290E00E9404
:102AC0007D0C782E692E84E290E00E947D0C2F927E
:102AD0003F924F925F926F927F929F938F931F933B
:102AE0000F93DF93CF930E94DF062DB73EB7245F8D
:102AF0003F4F0FB6F8943EBF0FBE2DBFB5CE81E05D
:102B00000E94A30F8430D1F560E08CE00E94ED05B7
:102B100080E294E00E94070763E080E00E94ED05F8
:102B200082E390E00E947D0C382E292E80E390E015
:102B30000E947D0C582E492E8EE290E00E947D0C62
:102B4000782E692E8CE290E00E947D0C2F923F92AD
:102B50004F925F926F927F929F938F931F930F93E9
:102B6000DF93CF930E94DF062DB73EB7245F3F4F20
:102B70000FB6F8943EBF0FBE2DBF76CE81E00E9407
:102B8000A30F8530D1F560E08CE00E94ED0587E26F
:102B900094E00E94070763E080E00E94ED058AE36D
:102BA00090E00E947D0C382E292E88E390E00E9450
:102BB0007D0C582E492E86E390E00E947D0C782EE5
:102BC000692E84E390E00E947D0C2F923F924F92F9
:102BD0005F926F927F929F938F931F930F93DF93D8
:102BE000CF930E94DF062DB73EB7245F3F4F0FB64D
:102BF000F8943EBF0FBE2DBF37CE81E00E94A30FD9
:102C0000873009F031CE60E08CE00E94ED058EE265
:102C100094E00E94070763E080E00E94ED0585E3F1
:102C200094E00E94070720CE823009F089C160E05D
:102C300080E00E94ED058AE494E00E94070761E0CD
:102C400080E00E94ED0587E594E00E94070762E0BE
:102C500080E00E94ED0580916A088F938091690859
:102C60008F9380916C088F9380916B088F938091E4
:102C70006E088F9380916D088F93809170088F9369
:102C800080916F088F939F928F92DF93CF930E94D2
:102C9000DF0660E08CE00E94ED0582E00E94A30F59
:102CA0002DB73EB7245F3F4F0FB6F8943EBF0FBE1F
:102CB0002DBF81113AC060E08CE00E94ED0588E6EE
:102CC00094E00E94070763E080E00E94ED0582E443
:102CD00090E00E947D0C382E292E80E490E00E9426
:102CE0007D0C582E492E8EE390E00E947D0C782EAC
:102CF000692E8CE390E00E947D0C2F923F924F92C0
:102D00005F926F927F929F938F93FF92EF92DF93E8
:102D1000CF930E94DF062DB73EB7245F3F4F0FB61B
:102D2000F8943EBF0FBE2DBF9FCD82E00E94A30F3F
:102D30008130D1F560E08CE00E94ED058FE794E0F2
:102D40000E94070763E080E00E94ED058AE490E0BE
:102D50000E947D0C382E292E88E490E00E947D0C84
:102D6000582E492E86E490E00E947D0C782E692E24
:102D700084E490E00E947D0C2F923F924F925F92EC
:102D80006F927F929F938F93FF92EF92DF93CF93F7
:102D90000E94DF062DB73EB7245F3F4F0FB6F89471
:102DA0003EBF0FBE2DBF60CD82E00E94A30F8230D8
:102DB000D1F560E08CE00E94ED0584E894E00E948B
:102DC000070763E080E00E94ED0582E590E00E9445
:102DD0007D0C382E292E80E590E00E947D0C582E27
:102DE000492E8EE490E00E947D0C782E692E8CE4B2
:102DF00090E00E947D0C2F923F924F925F926F92D3
:102E00007F929F938F931F930F93DF93CF930E9493
:102E1000DF062DB73EB7245F3F4F0FB6F8943EBF95
:102E20000FBE2DBF21CD82E00E94A30F8430E1F5BB
:102E300060E08CE00E94ED0580E294E00E940707CC
:102E400063E080E00E94ED058AE590E00E947D0C41
:102E5000382E292E88E590E00E947D0C582E492EB0
:102E600086E590E00E947D0C782E692E84E590E046
:102E70000E947D0C2F923F924F925F926F927F92B1
:102E80009F938F9389E894E09F938F93DF93CF93E1
:102E90000E94DF062DB73EB7245F3F4F0FB6F89470
:102EA0003EBF0FBE2DBFE0CC82E00E94A30F853055
:102EB000D1F560E08CE00E94ED0587E994E00E9486
:102EC000070763E080E00E94ED0582E690E00E9443
:102ED0007D0C382E292E80E690E00E947D0C582E25
:102EE000492E8EE590E00E947D0C782E692E8CE5AF
:102EF00090E00E947D0C2F923F924F925F926F92D2
:102F00007F929F938F931F930F93DF93CF930E9492
:102F1000DF062DB73EB7245F3F4F0FB6F8943EBF94
:102F20000FBE2DBFA1CC82E00E94A30F873009F015
:102F30009BCC60E08CE00E94ED058CE994E069CECA
:102F4000833009F059C060E080E00E94ED0581EA1D
:102F500094E00E94070761E080E00E94ED0587E5AC
:102F600094E00E94070762E080E00E94ED0588E19E
:102F700090E00E947D0C582E492E86E190E00E9440
:102F80007D0C782E692E84E190E00E947D0C4F929A
:102F90005F926F927F929F938F93DF92CF92DF9396
:102FA000CF930E94DF0663E080E00E94ED0580E49D
:102FB00090E00E947D0C582E492E8EE390E00E94F6
:102FC0007D0C782E692E8CE390E00E947D0C4F9250
:102FD0005F926F927F929F938F93BF92AF92DF9396
:102FE000CF930E94DF068DB79EB744960FB6F89434
:102FF0009EBF0FBE8DBF38CC843009F05AC060E050
:1030000080E00E94ED058BEC94E00E94070761E0F0
:1030100080E00E94ED0587E594E00E94070762E0EA
:1030200080E00E94ED0580E290E00E947D0C582E29
:10303000492E8EE190E00E947D0C782E692E8CE165
:1030400090E00E947D0C4F925F926F927F929F93CF
:103050008F93DF92CF92DF93CF930E94DF0663E0DE
:1030600080E00E94ED0588E490E00E947D0C582EDF
:10307000492E86E490E00E947D0C782E692E84E42F
:1030800090E00E947D0C4F925F926F927F929F938F
:103090008F93BF92AF92DF93CF930E94DF062DB73D
:1030A0003EB72C5E3F4F0FB6F8943EBF0FBE2DBF0C
:1030B000DBCB853009F059C060E080E00E94ED056F
:1030C00089ED94E00E94070761E080E00E94ED0531
:1030D00087E594E00E94070762E080E00E94ED052A
:1030E00088E290E00E947D0C582E492E86E290E006
:1030F0000E947D0C782E692E84E290E00E947D0C67
:103100004F925F926F927F929F938F93DF92CF92B5
:10311000DF93CF930E94DF0663E080E00E94ED051D
:1031200080E590E00E947D0C582E492E8EE490E0C0
:103130000E947D0C782E692E8CE490E00E947D0C1C
:103140004F925F926F927F929F938F93BF92AF92B5
:10315000DF93CF930E94DF068DB79EB744960FB6DC
:10316000F8949EBF0FBE8DBF7FCB863009F05AC04A
:1031700060E080E00E94ED0587EE94E00E94070782
:1031800061E080E00E94ED0587E594E00E9407077A
:1031900062E080E00E94ED0580E390E00E947D0CFB
:1031A000582E492E8EE290E00E947D0C782E692EDA
:1031B0008CE290E00E947D0C4F925F926F927F9222
:1031C0009F938F93DF92CF92DF93CF930E94DF067E
:1031D00063E080E00E94ED0588E590E00E947D0CB0
:1031E000582E492E86E590E00E947D0C782E692E9F
:1031F00084E590E00E947D0C4F925F926F927F92E7
:103200009F938F93BF92AF92DF93CF930E94DF067D
:103210002DB73EB72C5E3F4F0FB6F8943EBF0FBEA2
:103220002DBF22CB873009F06DC060E080E00E94A6
:10323000ED0585EF94E00E94070761E080E00E94C1
:10324000ED0587E594E00E94070762E080E00E94B8
:10325000ED058AE390E00E947D0C382E292E88E34C
:1032600090E00E947D0C582E492E86E390E00E944B
:103270007D0C782E692E84E390E00E947D0C2F92C5
:103280003F924F925F926F927F929F938F9386E0CF
:1032900095E09F938F93DF93CF930E94DF0663E0C7
:1032A00080E00E94ED0582E690E00E947D0C382EC1
:1032B000292E80E690E00E947D0C582E492E8EE546
:1032C00090E00E947D0C782E692E8CE590E00E94A3
:1032D0007D0C2F923F924F925F926F927F929F93BD
:1032E0008F9327E135E03F932F93DF93CF930E9495
:1032F000DF068DB79EB748960FB6F8949EBF0FBEF7
:103300008DBFB2CA883009F0AFCA60E080E00E9489
:10331000ED0588E295E00E94070761E080E00E94E9
:10332000ED0587E594E00E94070762E080E00E94D7
:10333000ED0580916A088F93809169088F93809141
:103340006C088F9380916B088F9380916E088F9398
:1033500080916D088F93809170088F9380916F0892
:103360008F939F928F92DF93CF930E94DF0660E04E
:103370008CE00E94ED0583E00E94A30F2DB73EB7BD
:10338000245F3F4F0FB6F8943EBF0FBE2DBF811193
:103390003AC060E08CE00E94ED0588E694E00E946F
:1033A000070763E080E00E94ED058AE690E00E9456
:1033B0007D0C382E292E88E690E00E947D0C582E38
:1033C000492E86E690E00E947D0C782E692E84E6D8
:1033D00090E00E947D0C2F923F924F925F926F92ED
:1033E0007F929F938F93FF92EF92DF93CF930E94F0
:1033F000DF062DB73EB7245F3F4F0FB6F8943EBFB0
:103400000FBE2DBF31CA83E00E94A30F8130D1F5DA
:1034100060E08CE00E94ED058FE794E00E940707D2
:1034200063E080E00E94ED0582E790E00E947D0C61
:10343000382E292E80E790E00E947D0C582E492ED0
:103440008EE690E00E947D0C782E692E8CE690E04E
:103450000E947D0C2F923F924F925F926F927F92CB
:103460009F938F93FF92EF92DF93CF930E94DF069B
:103470002DB73EB7245F3F4F0FB6F8943EBF0FBE47
:103480002DBFF2C983E050CDEEE2F9E01382128243
:1034900088EE93E0A0E0B0E084839583A683B783B1
:1034A0002AE033E03183208348E950E055874487A0
:1034B00049E950E0578746874BE950E0518B408BF4
:1034C0004AE950E0538B428B4DE950E0558B448BD9
:1034D0004CE950E0578B468B118E128E138E148E52
:1034E000EBECF9E01382128284839583A683B78381
:1034F0003183208320E930E03587248729E230E0DA
:10350000378726872BE230E0318B208B2AE230E0B0
:10351000338B228B25E930E0358B248B2CE230E095
:10352000378B268B118E128E138E148EE8E6FAE0FE
:103530001382128284839583A683B7838CE193E000
:1035400091838083E4E7FAE0138212828EE293E0B3
:10355000918380838CE184838FEF85838EE18683E2
:103560008FE1878380E2808781E2818782E28287A0
:103570001386148615861686178661E080E10C9402
:103580004C05789483B78C6483BF87B7816087BF0D
:10359000C2E0CEBD8EB581608EBD8FB581608FBD1E
:1035A00085B5846085BD85B5806485BD80918A00C0
:1035B000836080938A0080918B00816080938B0070
:1035C00086E886B91AB81FBC8FB58FBD8EB58EBD83
:1035D0008EB584608EBD61E08DE00E94890161E05E
:1035E0008CE00E94890162E086E00E94890161E02E
:1035F00083E20E94890162E085E20E94890162E023
:1036000086E20E94890162E086E00E94890162E010
:1036100088E00E94890162E089E00E94890162E0FD
:103620008AE00E94890162E08BE00E94890161E0EA
:103630008CE20E94890161E08BE20E94890161E0D5
:103640008AE20E9489011092DD081092DC08109233
:1036500099081092BB081092970881E08093960811
:1036600010928F0861E083E10E945B0161E082E1DA
:103670000E945B01809171008C7F809371008FE2CA
:103680008093700085E4809374008CED92E09093B9
:103690006808809367088DED92E0909366088093A8
:1036A0006508E091DB09F091DC09C083E091D7095E
:1036B000F091D8091082E091D909F091DA091BE064
:1036C00010831092E309E091DF09F091E009D6E060
:1036D000D083E091DD09F091DE09808188698083E3
:1036E000E091DD09F091DE0980818F7D808361E0CA
:1036F00085E10E94890161E086E10E948901E091F3
:103700003E09F0913F09C083E0913A09F0913B09ED
:103710001082E0913C09F0913D0910831092460916
:10372000E0914209F0914309D083E0914009F09182
:103730004109808188698083E0914009F0914109C5
:1037400080818F7D808364E084E10E944C0560E28B
:1037500073E080E090E00E94AA0288E890E09093F5
:103760008808809387088FEF90E090938608809375
:10377000850884E190E0909384088093830868E84A
:1037800070E088E990E00E941407609185087091CC
:10379000860886E990E00E94140760918308709182
:1037A00084088AE990E00E94140780E690E09093F4
:1037B0008208809381088CEB90E09093800880933E
:1037C0007F0885E191E090937E0880937D0860E614
:1037D00070E08CE990E00E94140760917F0870917E
:1037E00080088EE990E00E94140760917D08709136
:1037F0007E0880EA90E00E94140784EF91E09093A5
:103800007C0880937B0884E992E090937A08809307
:1038100079088EEB90E0909378088093770880E2A7
:1038200093E0909376088093750884E893E09093F2
:103830007408809373088EE492E0909372088093EA
:10384000710863E171E084EA90E00E9414076091DE
:103850007B0870917C0886EA90E00E9414076091D2
:10386000790870917A0888EA90E00E9414076091C4
:103870007708709178088AEA90E00E9414076091B6
:103880007508709176088CEA90E00E9414076091A8
:103890007308709174088EEA90E00E94140760919A
:1038A00071087091720880EB90E00E9414070E94EA
:1038B000450585E395E00E94070761E080E00E94EE
:1038C000ED0586E20E943201EC0185E20E943201A0
:1038D000DF93CF939F938F9389E495E09F938F938A
:1038E000C4E7DAE0DF93CF930E94DF0663E080E075
:1038F0000E94ED0586E00E943201F82EE92E88E054
:103900000E943201182F092F89E00E943201EF92A4
:10391000FF920F931F939F938F9389E595E09F9359
:103920008F93DF93CF930E94DF0686E00E943201DF
:10393000EDB7FEB772960FB6F894FEBF0FBEEDBF9F
:10394000892B09F00CC18AE090E00E94BB060E941E
:103950004505DD24D39476E0C72EE5E0BE2ECCEC01
:10396000D5E004E71AE088E00E943201892BA9F42F
:1039700088E00E943201892BD9F362E370E080E095
:1039800090E00E94AA02809105018F5F873008F0C5
:10399000FFC0809305010E94450589E00E94320125
:1039A000892BA1F489E00E943201892BD9F362E3CB
:1039B00070E080E090E00E94AA02809105018150B1
:1039C00009F4E9C0809305010E9445058091050135
:1039D00060E0853008F0E2C082E00E94ED0581E7FA
:1039E00095E00E94070761E082E00E94ED0588E70C
:1039F00095E00E94070762E082E00E94ED0587E8FB
:103A000095E00E94070763E082E00E94ED0586E9E9
:103A100095E00E94070760910501615080E00E94D7
:103A2000ED058FEA97E00E9407078091050181303C
:103A300009F013C186E00E943201892B09F0C1C050
:103A400086E00E943201892BD9F30E94450580EC63
:103A500095E00E94070781E090E00E94BB066CE3BE
:103A600070E08CE390E00E94560640E060E080E069
:103A70000E940906EC0140E060E081E00E94090636
:103A8000C80FD91F40E060E082E00E940906C80F1D
:103A9000D91F40E060E083E00E940906C80FD91FEB
:103AA00040E060E084E00E940906C80FD91F40E0B2
:103AB00060E085E00E940906C80FD91F40E060E081
:103AC00086E00E940906C80FD91F40E061E081E04E
:103AD0000E940906C80FD91F40E061E082E00E9401
:103AE0000906C80FD91F40E061E083E00E94090683
:103AF000C80FD91F40E061E084E00E940906C80FAA
:103B0000D91F40E061E085E00E940906C80FD91F77
:103B100040E061E086E00E9409068C0F9D1F069739
:103B20000CF0A3CFC0918708D0918808D7FD2196CB
:103B3000D595C7951DBC1CBC04E610E08CB59DB5A1
:103B4000B8010E947B2D6C177D0710F00C945F2844
:103B500064EB70E084EB90E00E945606EFCF88E0C3
:103B60000E943201892B09F4EECE89E00E943201D5
:103B7000892B09F4E8CE85E20E943201892B09F4F1
:103B8000E2CE86E20E943201892B09F4DCCEDFCE40
:103B9000D092050100CFC092050116CF82E00E94AD
:103BA000ED0585EA95E00E94070761E082E00E944A
:103BB000ED0583EB95E00E940707609105016550D4
:103BC0002DCF84E30E943902B89EB001B99E700DDA
:103BD0001124072E000C880B990B0E945E2C2AE9F9
:103BE00039E94CEC52E40E94B42B26E636E646E472
:103BF00050E40E940E2D0E94262CA62E972EE62E13
:103C0000F72E60E088E00E94ED059F92AF92DF936F
:103C1000CF931F930F930E94DF060F900F900F908A
:103C20000F900F900F9039E6E316F1040CF09BCE45
:103C300061E08DE00E945B0162E370E080E090E073
:103C40000E94AA0260E08DE00E945B0162E370E0E6
:103C500080E090E00E94AA0286CE823009F061C422
:103C600086E00E943201892B09F07DCE86E00E9419
:103C70003201892BD9F30E944505C4E7DAE06BE0F5
:103C8000C62ED12CE12CF12C88E00E943201892B28
:103C9000A9F488E00E943201892BD9F362E370E035
:103CA00080E090E00E94AA02809102018F5F87303D
:103CB0000CF05BC1809302010E94450589E00E94DF
:103CC0003201892BA9F489E00E943201892BD9F3B2
:103CD00062E370E080E090E00E94AA02809102011D
:103CE000815018160CF043C1809302010E944505D3
:103CF0008AE00E943201892B09F03BC168E270E042
:103D000088E290E00E94560680910201813009F01D
:103D100093C160E080E00E94ED0540E063E082E056
:103D20000E940906B82EA92E40E060E080E00E94C3
:103D30000906182F092F40E062E082E00E94090680
:103D4000AF92BF920F931F939F938F9385ED95E052
:103D50009F938F93DF93CF930E94DF0661E080E013
:103D60000E94ED0540E061E083E00E940906582EC4
:103D7000492E40E061E082E00E940906782E692E1B
:103D800040E061E081E00E940906982E892E40E023
:103D900060E081E00E940906B82EA92E40E060E0B4
:103DA00082E00E940906182F092F40E060E083E0BE
:103DB0000E9409064F925F926F927F928F929F921C
:103DC000AF92BF920F931F939F938F9389EE95E0CD
:103DD0009F938F93DF93CF930E94DF0662E080E092
:103DE0000E94ED0540E061E086E00E940906382E61
:103DF000292E40E061E085E00E940906582E492EF8
:103E000040E061E084E00E940906782E692EACB49F
:103E1000BDB440E060E084E00E940906982E892E3F
:103E200040E060E085E00E940906182F092F40E07D
:103E300060E086E00E9409069C012F923F924F921B
:103E40005F926F927F92C50164E670E00E947B2DC5
:103E50007F936F938F929F920F931F933F932F9314
:103E600080E096E09F938F93DF93CF930E94DF06CD
:103E70008DB79EB78C960FB6F8949EBF0FBE8DBFC0
:103E800063E080E00E94ED0540E060E087E00E9492
:103E90000906B82EA92E40E062E080E00E940906E3
:103EA000182F092F40E062E081E00E940906AF92DE
:103EB000BF920F931F939F938F9300E116E01F9380
:103EC0000F93DF93CF930E94DF0663E08DE00E94A3
:103ED000ED0540E063E081E00E940906982E892EFE
:103EE00040E063E080E00E940906B82EA92E40E081
:103EF00061E087E00E9409068F929F92AF92BF9285
:103F00009F938F931F930F93DF93CF930E94DF06AE
:103F100063E084E00E94ED0581E00E94A30FEDB70D
:103F2000FEB774960FB6F894FEBF0FBEEDBF8111B9
:103F30002FC088E694E00E94070763E089E00E94B2
:103F4000ED0582E00E94A30F811145C08CE196E04F
:103F50000E94070786E00E943201892B09F094CE67
:103F60001DBC1CBC1DBC1CBC8FCE81E0A3CE86E05A
:103F7000BBCE8BE00E943201892B29F468ED7FEFE4
:103F800088ED9FEFBFCE70E060E090E080E0BACEB9
:103F900081E00E94A30F813019F48FE794E0CBCF2A
:103FA00081E00E94A30F823019F483E694E0C3CF2E
:103FB00081E00E94A30F843019F487E196E0BBCF23
:103FC00081E00E94A30F853019F487E994E0B3CF14
:103FD0008CE994E0B0CF82E00E94A30F813019F405
:103FE00080E296E0B5CF82E00E94A30F823019F400
:103FF00084E296E0ADCF82E00E94A30F843019F4F2
:1040000088E296E0A5CF41E061E086E00E940906E3
:10401000BC01990F880B990B0E945E2C26E636E6B0
:1040200046E65FE30E94AF2B87FF03C08CE296E079
:104030008FCF80E396E08CCF823009F092C060E0B1
:1040400080E00E94ED0541E060E080E00E9409060A
:10405000182F092F41E062E082E00E9409060F93C9
:104060001F939F938F9384E396E09F938F93DF93A7
:10407000CF930E94DF0661E085E00E94ED0541E0FC
:1040800060E081E00E940906B82EA92E41E060E0C0
:1040900082E00E940906182F092F41E060E083E0CA
:1040A0000E940906AF92BF920F931F939F938F9325
:1040B00089E496E09F938F93DF93CF930E94DF066E
:1040C00062E082E00E94ED0541E060E084E00E9451
:1040D0000906B82EA92E41E060E085E00E9409069D
:1040E000182F092F41E060E086E00E940906AF9298
:1040F000BF920F931F939F938F930AE516E01F9330
:104100000F93DF93CF930E94DF0663E080E00E946D
:10411000ED0541E060E087E00E940906982E892EB7
:1041200041E062E080E00E940906B82EA92E41E03D
:1041300062E081E00E9409068F929F92AF92BF9247
:104140009F938F931F930F93DF93CF930E94DF066C
:104150008DB79EB786960FB6F8949EBF0FBE8DBFE3
:1041600093CD833009F091C060E080E00E94ED05BE
:1041700041E063E082E00E940906182F092F41E028
:1041800060E080E00E9409060F931F939F938F9336
:104190008CE696E09F938F93DF93CF930E94DF0688
:1041A00061E082E00E94ED0541E061E083E00E9471
:1041B0000906B82EA92E41E061E082E00E940906BE
:1041C000182F092F41E061E081E00E940906AF92BB
:1041D000BF920F931F939F938F930AE516E01F934F
:1041E0000F93DF93CF930E94DF0662E084E00E948A
:1041F000ED0541E061E086E00E940906982E892ED7
:1042000041E061E085E00E940906B82EA92E41E058
:1042100061E084E00E9409068F929F92AF92BF9264
:104220009F938F931F930F93DF93CF930E94DF068B
:1042300063E086E00E94ED0541E063E081E00E94DA
:104240000906982E892E41E063E080E00E9409066D
:10425000B82EA92E41E061E087E00E9409068F9206
:104260009F92AF92BF929F938F931F930F93DF9371
:10427000CF930E94DF062DB73EB72A5D3F4F0FB6A2
:10428000F8943EBF0FBE2DBFFFCC843009F07EC036
:1042900060E080E00E94ED0540E063E084E00E9481
:1042A0000906B82EA92E40E063E083E00E940906CB
:1042B000182F092F40E062E084E00E940906AF92C7
:1042C000BF920F931F939F938F9381E896E09F93E4
:1042D0008F93DF93CF930E94DF0661E080E00E941E
:1042E000ED0541E062E086E00E940906182F092FE3
:1042F00040E062E086E00E9409060F931F939F93BF
:104300008F9384E996E09F938F93DF93CF930E94DE
:10431000DF0662E080E00E94ED0541E062E085E0BA
:104320000E940906182F092F40E062E085E00E94F4
:1043300009060F931F939F938F9385EA96E09F93AF
:104340008F93DF93CF930E94DF0663E080E00E94AB
:10435000ED0586E20E943201182F092F85E20E94A6
:1043600032010F931F939F938F9385EB96E09F935A
:104370008F93DF93CF930E94DF068DB79EB782960F
:104380000FB6F8949EBF0FBE8DBF7ECC853009F06E
:104390009AC060E080E00E94ED0561E089E10E9442
:1043A000890160E089E10E945B0182E090E00E9467
:1043B000420261E089E10E945B018AE090E00E9494
:1043C000420260E089E10E945B0160E080E10E94BE
:1043D0008901E1E0F1E06491ECECF0E08491E82FF8
:1043E000F0E0EE0FFF1FE455FF4F859194910CE82C
:1043F0001DE72AE030E0462F0E945B099B01AC01DB
:10440000211531054105510579F06F5F7F4F8F4FC1
:104410009F4F44E0660F771F881F991F4A95D1F779
:10442000A70196010E94A32DAAE0B0E00E94FC2DF6
:104430002AE330E040E050E00E94C52D3F932F93E7
:1044400026EC36E03F932F93DF93CF930E94DF0655
:1044500061E080E00E94ED0583E00E944E0B9F9397
:104460008F9320ED36E03F932F93DF93CF930E94FD
:10447000DF0662E080E00E94ED0581E00E944E0BC5
:10448000182F092F82E00E944E0B0F931F939F93CA
:104490008F932FED36E03F932F93DF93CF930E94BE
:1044A000DF0668EC70E080E090E00E94AA020E94C3
:1044B00045052DB73EB72C5E3F4F0FB6F8943EBF73
:1044C0000FBE2DBFE1CB863009F0DECB60E080E08F
:1044D0000E94ED0583E090E00E94040CB82EA92E06
:1044E00082E090E00E94040C182F092F81E090E0F8
:1044F0000E94040CAF92BF920F931F939F938F93D0
:1045000080EF96E09F938F93DF93CF930E94DF0617
:104510008DB79EB70A960FB6F8949EBF0FBE8DBF9B
:10452000B3CB833009F056C286E00E943201892B5A
:1045300009F019CA86E00E943201892BD9F386E975
:1045400090E00E947D0C8C0188E990E00E947D0C37
:104550007C018AE990E00E947D0C6C018CE990E07E
:104560000E947D0C982E892E8EE990E00E947D0C91
:10457000782E692E80EA90E00E947D0C582E492EFC
:1045800082EA90E00E947D0C1C010E944505C4E770
:10459000DAE088E00E943201892BA9F488E00E94C9
:1045A0003201892BD9F362E370E080E090E00E9451
:1045B000AA02809103018F5F89300CF08EC0809336
:1045C00003010E94450589E00E943201892BA9F46C
:1045D00089E00E943201892BD9F362E370E080E028
:1045E00090E00E94AA0280910301815018160CF0FD
:1045F00076C0809303010E944505809103018530B8
:104600000CF06FC060E082E00E94ED051F930F93F5
:10461000E6E0F7E0FF93EF93DF93CF930E94DF068E
:1046200061E082E00E94ED05FF92EF92E5E1F7E0A4
:10463000FF93EF93DF93CF930E94DF0662E082E067
:104640000E94ED058AE990E00E947D0C9F938F9374
:10465000E4E2F7E0FF93EF93DF93CF930E94DF064E
:1046600063E082E00E94ED05E3E3F7E0FF93EF9360
:10467000DF93CF930E94DF0660910301615080E0D9
:104680000E94ED0583E497E00E940707EDB7FEB7AF
:1046900076960FB6F894FEBF0FBEEDBF8091030172
:1046A000813009F09CC08AE00E943201892B09F018
:1046B0006CC068E770E080E090E00E94AA02065FAC
:1046C0001F4F0F3F110519F014F00FEF10E0B80164
:1046D00086E990E00E9414075CCF81E070CF88E00B
:1046E00088CF8930DCF660E082E00E94ED0581E051
:1046F00090E00E94040C9F938F938F929F9225E4E9
:1047000037E03F932F93DF93CF930E94DF0661E062
:1047100082E00E94ED056F927F9226E537E03F939D
:104720002F93DF93CF930E94DF0662E082E00E9426
:10473000ED054F925F922EE537E03F932F93DF9385
:10474000CF930E94DF0663E082E00E94ED053F9276
:104750002F9226E637E03F932F93DF93CF930E946B
:10476000DF0660910301655080E00E94ED0583E45F
:1047700097E00E9407072DB73EB7265E3F4F0FB662
:10478000F8943EBF0FBE2DBF89CF8BE00E9432014F
:10479000892B79F468E770E080E090E00E94AA023B
:1047A0000A5011090A3011050CF091CF0AE010E00F
:1047B0008ECF86E00E943201892B09F0EACEB80143
:1047C000C8010E94560686E00E943201892BD9F367
:1047D00070E060E090E080E00E94560678CF823082
:1047E00009F04CC08AE00E943201892B69F468EC20
:1047F00070E080E090E00E94AA023FEFE31AF30A23
:10480000B70188E990E066CF8BE00E943201892BE6
:1048100051F468EC70E080E090E00E94AA0281E030
:10482000E81AF108EDCF86E00E943201892B09F0E9
:10483000B0CE86E00E943201892BD9F30E94450553
:10484000B70188E990E00E9414071DBC1CBC8CB520
:104850009DB564E670E00E947B2D6E157F0538F4EF
:1048600068EC70E088E39FEF0E945606F0CF70E09E
:1048700060E090E080E00E9456068BCE833081F5A8
:104880008AE00E943201892BA1F464E670E080E0A6
:1048900090E00E94AA029FEFC91AD90AE1E5CE165C
:1048A000D1041CF030E5C32ED12CB6018AE990E08A
:1048B00011CF8BE00E943201892B09F06ACE64E6A9
:1048C00070E080E090E00E94AA02F1E0CF1AD108E7
:1048D00025E0C216D1044CF725E0C22ED12CE5CF3D
:1048E0008430D1F486E00E9432015C01892B09F00A
:1048F00050CE0E94450586E00E943201892BD9F3F3
:1049000060E0C5010E94A22B3FEFA31AB30A88EC16
:10491000A816B104A9F73DCE8530B1F486E00E9417
:104920003201892B09F035CE86E00E943201892BB5
:10493000D9F381E090E00E94040C982E892E682F14
:10494000792F8CE990E0C6CE8630A9F40E9432011E
:10495000892B09F01ECE86E00E943201892BD9F303
:1049600081E090E00E94040C782E692E682F792F48
:104970008EE990E0AFCE8730B1F486E00E9432013C
:10498000892B09F006CE86E00E943201892BD9F3EB
:1049900081E090E00E94040C582E492E682F792F58
:1049A00080EA90E097CE883009F0F3CD86E00E944F
:1049B0003201892B09F0EDCD86E00E943201892B6E
:1049C000D9F370E060E082EA90E00E941407212CA5
:1049D000312CDFCD843081F486E00E943201892BB6
:1049E00011F00C94B31C0E94450586E00E94320130
:1049F000892BD9F30E941E14853071F486E00E9441
:104A00003201892B11F00C94B31C86E00E94320114
:104A1000892BD9F30E94930C863011F00C94B31CAF
:104A20000E943201892B11F00C94B31C0E944505A1
:104A300086E00E943201892BD9F368EC70E080E0B7
:104A400090E00E94AA020E944505812CC0E0912CB2
:104A5000A12CB12CC12CD12CE12CF12C00E010E0C8
:104A6000D0E0772473949CE0692E88E00E943201A4
:104A7000892B79F488E00E943201892BD9F3809147
:104A800004018F5F8D300CF09DC0809304010E9463
:104A9000450589E00E943201892B79F489E00E9462
:104AA0003201892BD9F380910401815018160CF042
:104AB0008CC0809304010E94450586E00E9432016B
:104AC000892B41F40E94450568EC70E080E090E09D
:104AD0000E94AA028091040160E085300CF078C049
:104AE00083E00E94ED0585E797E00E940707D1303B
:104AF00021F482E897E00E94070761E083E00E94CA
:104B0000ED0587E897E00E940707113021F482E85D
:104B100097E00E94070762E083E00E94ED0584E9C8
:104B200097E00E940707013021F482E897E00E9495
:104B3000070763E083E00E94ED0581EA97E00E94A9
:104B4000070791E0F91204C082E897E00E94070786
:104B500060910401615080E00E94ED058EEA97E0CB
:104B60000E94070780910401813009F0B1C086E0FE
:104B70000E943201892B09F078CF81E00E94A30FB7
:104B800060916F087091700884E190E00E941407B2
:104B900060916D0870916E0886E190E00E941407A4
:104BA00060916B0870916C0888E190E00E94140796
:104BB0006091690870916A088AE190E00E94140788
:104BC000D1E053CF7092040162CF6092040173CFA1
:104BD00089300CF03FC083E00E94ED0582EB97E046
:104BE0000E940707E1E0EE1204C082E897E00E940D
:104BF000070761E083E00E94ED058FEB97E00E94DC
:104C00000707F1E0DF1204C082E897E00E9407077F
:104C100062E083E00E94ED058CEC97E00E940707BC
:104C200021E0C21204C082E897E00E94070763E017
:104C300083E00E94ED0589ED97E00E94070731E0CF
:104C4000B31204C082E897E00E9407076091040154
:104C5000655081CF83E00E94ED0587EE97E00E94CA
:104C6000070781E0A81204C082E897E00E940707C6
:104C700061E083E00E94ED0585EF97E00E94070761
:104C800091E0991204C082E897E00E94070762E071
:104C900083E00E94ED0583E098E00E940707E1E0D1
:104CA0008E1204C082E897E00E94070763E083E069
:104CB0000E94ED0580E198E00E940707C13021F4D1
:104CC00082E897E00E94070760910401695043CF92
:104CD000823059F586E00E943201892B09F0C5CE59
:104CE00082E00E94A30F60916F08709170088CE3BE
:104CF00090E00E94140760916D0870916E088EE339
:104D000090E00E94140760916B0870916C0880E439
:104D100090E00E9414076091690870916A0882E42B
:104D200090E00E94140711E0A0CE833059F586E090
:104D30000E943201892B09F098CE81E00E94A30FD6
:104D400060916F08709170088CE190E00E941407E8
:104D500060916D0870916E088EE190E00E941407DA
:104D600060916B0870916C0880E290E00E941407DB
:104D70006091690870916A0882E290E00E941407CD
:104D800001E073CE843061F586E00E943201892B08
:104D900009F06BCE82E00E94A30F60916F087091C2
:104DA000700884E490E00E94140760916D0870918F
:104DB0006E0886E490E00E94140760916B08709181
:104DC0006C0888E490E00E94140760916908709173
:104DD0006A088AE490E00E941407FF24F39445CE09
:104DE000853061F586E00E943201892B09F03DCEC5
:104DF00081E00E94A30F60916F087091700884E2B7
:104E000090E00E94140760916D0870916E0886E230
:104E100090E00E94140760916B0870916C0888E222
:104E200090E00E9414076091690870916A088AE214
:104E300090E00E941407EE24E39417CE863059F5D3
:104E40000E943201892B09F010CE82E00E94A30F4C
:104E500060916F08709170088CE490E00E941407D4
:104E600060916D0870916E088EE490E00E941407C6
:104E700060916B0870916C0880E590E00E941407C7
:104E80006091690870916A0882E590E00E941407B9
:104E9000DD24D394EACD873061F586E00E943201AB
:104EA000892B09F0E2CD81E00E94A30F60916F0889
:104EB000709170088CE290E00E94140760916D0878
:104EC00070916E088EE290E00E94140760916B086A
:104ED00070916C0880E390E00E941407609169086B
:104EE00070916A0882E390E00E941407CC24C39476
:104EF000BCCD883061F586E00E943201892B09F033
:104F0000B4CD82E00E94A30F60916F087091700889
:104F100084E590E00E94140760916D0870916E081E
:104F200086E590E00E94140760916B0870916C0810
:104F300088E590E00E9414076091690870916A0802
:104F40008AE590E00E941407BB24B3948ECD89308B
:104F500061F586E00E943201892B09F086CD81E05F
:104F60000E94A30F60916F087091700884E390E035
:104F70000E94140760916D0870916E0886E390E0BE
:104F80000E94140760916B0870916C0888E390E0B0
:104F90000E9414076091690870916A088AE390E0A2
:104FA0000E941407AA24A39460CD8A3061F586E09C
:104FB0000E943201892B09F058CD82E00E94A30F94
:104FC00060916F08709170088CE590E00E94140762
:104FD00060916D0870916E088EE590E00E94140754
:104FE00060916B0870916C0880E690E00E94140755
:104FF0006091690870916A0882E690E00E94140747
:105000009924939432CD8B3061F586E00E94320171
:10501000892B09F02ACD83E00E94A30F60916F08CD
:10502000709170088CE690E00E94140760916D0802
:1050300070916E088EE690E00E94140760916B08F4
:1050400070916C0880E790E00E94140760916908F5
:1050500070916A0882E790E00E9414078824839484
:1050600004CD8C3009F001CD86E00E943201892BFD
:1050700009F0FBCC83E00E94A30F60916F08709150
:10508000700884E690E00E94140760916D087091AA
:105090006E0886E690E00E94140760916B0870919C
:1050A0006C0888E690E00E9414076091690870918E
:1050B0006A088AE690E00E941407C1E0D6CC70E04E
:1050C00060E090E080E00E94560640E060E080E012
:1050D0000E940906019729F46FEF70E08FEF90E0CE
:1050E0000BC040E061E081E00E940906019749F4AD
:1050F00068E770E08CED90E00E9456060E94EB039A
:10510000E4CF40E061E082E00E94090665E570E0DE
:10511000019721F340E061E083E00E94090667E91E
:105120007FEF0197D9F240E061E084E00E94090638
:10513000019719F461E57FEFD1CF40E061E085E0B0
:105140000E940906019719F461E07FEFC7CF40E0A4
:1051500061E086E00E9409060197B1F340E060E05B
:1051600081E00E940906019729F46FEF70E08BE956
:1051700090E0C2CF40E060E082E00E940906019723
:1051800029F46FEF70E085E590E0B6CF40E060E095
:1051900083E00E940906019729F46FEF70E087E928
:1051A0009FEFAACF40E060E084E00E9409060197EB
:1051B00029F46FEF70E081E59FEF9ECF40E060E063
:1051C00085E00E940906019729F46FEF70E081E005
:1051D0009FEF92CF40E060E086E00E9409060197D1
:1051E00009F07ACFF2CF2F923F924F925F926F9257
:1051F0007F928F929F92AF92BF92CF92DF92EF9267
:10520000FF920F931F93CF93DF93CDB7DEB72B970A
:105210000FB6F894DEBF0FBECDBF7C013B018A0103
:10522000FC0117821682838181FFDDC1CE010196C8
:105230005C01F7019381F30193FD859193FF8191C7
:105240003F01882309F453C1853239F493FD8591D8
:1052500093FF81913F01853229F4B70190E00E94CC
:105260000C2BE7CF912C212C312CFFE1F31538F0DA
:105270008B3211F190F4803209F1833229F137FC3D
:105280003CC020ED280F2A3050F536FE20C08AE0C1
:10529000989E200D1124922E06C08D3291F08033FD
:1052A00071F7689430F8F30193FD859193FF819134
:1052B0003F018111DACF21C0689431F8689432F847
:1052C000F2CF689433F8EFCF689434F8ECCFEAE08B
:1052D0002E9E200D1124222E689435F8E4CF8E32B4
:1052E00029F436FC04C1689436F8DDCF8C3619F405
:1052F000689437F8D8CF8836B1F2982F9F7D9554AF
:105300009330E0F08336A1F18337C1F1833509F0A2
:1053100063C02801F2E04F0E511CF801C080D1801B
:10532000692D70E036FC02C06FEF7FEFC6010E946E
:10533000F62A4C01689437F882010AC00C5F1F4FAF
:10534000FFE3F98388248394912C6501E89437F86E
:1053500033FE2DC0522C8114910471F5552009F4AF
:1053600068CFB70180E290E00E940C2B5A94F6CFF0
:10537000F801808189830E5F1F4FE4CF2801F2E09E
:105380004F0E511CF801C080D180692D70E036FCB1
:1053900002C06FEF7FEFC6010E94012B4C0182011A
:1053A000D5CFB70180E290E00E940C2B2A942814FC
:1053B000190409F0B0F7CECFF60137FC859137FE1E
:1053C00081916F01B70190E00E940C2B51105A940B
:1053D000F1E08F1A9108BFCF843619F0893609F0B1
:1053E00077C0F80137FE6BC0608171818281938143
:1053F0000C5F1F4FF32DFF763F2E97FF09C090954E
:105400008095709561957F4F8F4F9F4F689437F8C7
:105410002AE030E0A5010E943C2BC82ECA188C2C33
:10542000432C36FE0CC0E89440F8C91440F434FE16
:1054300005C032FC03C0F32DFE7E4F2E892C44FEA6
:10544000AAC0FE01EC0DF11D8081803309F09CC0E3
:10545000242D297E422E842D8870582E43FCAAC00C
:1054600040FEA4C09C2C821418F42C0C922C98188A
:1054700044FEA6C0B70180E390E00E940C2B42FEE0
:1054800009C088E790E041FE02C088E590E0B701DE
:105490000E940C2BC91408F49FC0CA94D12C9FEF12
:1054A000C91AD90ACA0CDB1CF60182916F01B70137
:1054B00090E00E940C2BAC14BD04B1F74FCF60817B
:1054C0007181072E000C880B990B0E5F1F4F92CF36
:1054D000D32CE894D4F82AE030E08537E1F1232D8D
:1054E000297FD22E8F36A9F1F0F4883551F1F701DA
:1054F000868197812B960FB6F894DEBF0FBECDBF85
:10550000DF91CF911F910F91FF90EF90DF90CF909F
:10551000BF90AF909F908F907F906F905F904F90D3
:105520003F902F900895803749F0883701F7D4FED7
:1055300002C06894D2F820E130E00DC06894D4F83D
:10554000F6CF34FE03C0822F8660D82E20E132E0F1
:1055500002C028E030E0F801D7FE0FC06081718101
:10556000828193810C5F1F4FA5010E943C2BC82EA6
:10557000CA183D2CE89437F852CF6081718190E0D1
:1055800080E00E5F1F4FF0CF42FC02C0839463CFD8
:105590008394839460CF842D867809F45CCFF6CF12
:1055A000B70180E290E00E940C2B83948214C0F338
:1055B000512C5ECF522C5818821408F459CFF8CFD2
:1055C000842D867809F466CF8BE241FE80E247FCA9
:1055D0008DE2B70190E05CCFB70180E390E00E94DC
:1055E0000C2B9A9457CF8FEF9FEF84CFFC0105903F
:1055F000615070400110D8F7809590958E0F9F1FD5
:105600000895FC016150704001900110D8F7809519
:1056100090958E0F9F1F08950F931F93CF93DF9345
:10562000182F092FEB018B8181FD09C01FEF0FEFB0
:10563000812F902FDF91CF911F910F91089582FFBD
:1056400014C02E813F818C819D81281739073CF43D
:10565000E881F981CF0101969983888310838E8137
:105660009F8101969F838E83E3CFE885F985812F03
:105670000995892BA1F3DACFFA01AA27283051F135
:10568000203181F1E8946F936E7F6E5F7F4F8F4F73
:105690009F4FAF4FB1E03ED0B4E03CD0670F781FD2
:1056A000891F9A1FA11D680F791F8A1F911DA11DB7
:1056B0006A0F711D811D911DA11D20D009F46894F0
:1056C0003F912AE0269F11243019305D3193DEF698
:1056D000CF010895462F4770405D4193B3E00FD04E
:1056E000C9F7F6CF462F4F70405D4A3318F0495D39
:1056F00031FD4052419302D0A9F7EACFB4E0A6951C
:105700009795879577956795BA95C9F7009761053D
:10571000710508959B01AC010A2E06945795479593
:1057200037952795BA95C9F7620F731F841F951F88
:10573000A01D0895E199FECF9FBB8EBBE09A9927EB
:105740008DB30895262FE199FECF9FBB8EBB2DBB55
:105750000FB6F894E29AE19A0FBE019608950E945E
:10576000992C08F481E008950E94C82B0C94D42C45
:105770000E94CD2C58F00E94C62C40F029F45F3FC7
:1057800029F00C94BD2C51110C94082D0C94C32CB1
:105790000E94E52C68F39923B1F3552391F3951BEF
:1057A000550BBB27AA2762177307840738F09F5F42
:1057B0005F4F220F331F441FAA1FA9F335D00E2EAF
:1057C0003AF0E0E832D091505040E695001CCAF71C
:1057D0002BD0FE2F29D0660F771F881FBB1F2617DF
:1057E00037074807AB07B0E809F0BB0B802DBF01B6
:1057F000FF2793585F4F3AF09E3F510578F00C9485
:10580000BD2C0C94082D5F3FE4F3983ED4F38695AD
:1058100077956795B795F7959F5FC9F7880F911DA5
:105820009695879597F90895E1E0660F771F881F91
:10583000BB1F621773078407BA0720F0621B730B44
:10584000840BBA0BEE1F88F7E09508950E942D2C6B
:105850006894B1110C94082D08950E94ED2C88F0E5
:105860009F5798F0B92F9927B751B0F0E1F0660F24
:10587000771F881F991F1AF0BA95C9F714C0B13065
:1058800091F00E94072DB1E008950C94072D672F29
:10589000782F8827B85F39F0B93FCCF38695779594
:1058A0006795B395D9F73EF490958095709561957D
:1058B0007F4F8F4F9F4F0895E89409C097FB3EF4A8
:1058C00090958095709561957F4F8F4F9F4F99234D
:1058D000A9F0F92F96E9BB279395F69587957795CB
:1058E0006795B795F111F8CFFAF4BB0F11F460FF8B
:1058F0001BC06F5F7F4F8F4F9F4F16C0882311F0E3
:1059000096E911C0772321F09EE8872F762F05C0F6
:10591000662371F096E8862F70E060E02AF09A9591
:10592000660F771F881FDAF7880F9695879597F986
:105930000895990F0008550FAA0BE0E8FEEF161620
:105940001706E807F907C0F012161306E407F50773
:1059500098F0621B730B840B950B39F40A2661F0E7
:10596000232B242B252B21F408950A2609F4A1408A
:10597000A6958FEF811D811D089597F99F6780E897
:1059800070E060E008959FEF80EC089500240A9491
:105990001616170618060906089500240A9412160A
:1059A0001306140605060895092E0394000C11F43D
:1059B000882352F0BB0F40F4BF2B11F460FF04C0EA
:1059C0006F5F7F4F8F4F9F4F089557FD9058440F43
:1059D000551F59F05F3F71F04795880F97FB991F4E
:1059E00061F09F3F79F0879508951216130614060B
:1059F000551FF2CF4695F1DF08C016161706180698
:105A0000991FF1CF86957105610508940895E89472
:105A1000BB2766277727CB0197F908950E94212D90
:105A20000C94D42C0E94C62C38F00E94CD2C20F06F
:105A3000952311F00C94BD2C0C94C32C11240C94C0
:105A4000082D0E94E52C70F3959FC1F3950F50E04F
:105A5000551F629FF001729FBB27F00DB11D639F20
:105A6000AA27F00DB11DAA1F649F6627B00DA11DC6
:105A7000661F829F2227B00DA11D621F739FB00D6C
:105A8000A11D621F839FA00D611D221F749F3327DC
:105A9000A00D611D231F849F600D211D822F762F75
:105AA0006A2F11249F5750409AF0F1F088234AF052
:105AB000EE0FFF1FBB1F661F771F881F91505040BE
:105AC000A9F79E3F510580F00C94BD2C0C94082D35
:105AD0005F3FE4F3983ED4F3869577956795B79545
